:100000000C945B000C9483020C94B0020C9483005B
:100010000C9483000C9483000C9483000C94830054
:100020000C9483000C9483000C9483000C94830044
:100030000C9483000C9483000C9483000C94830034
:100040000C94DD020C9483000C9479040C948300CE
:100050000C9483000C9483000C9483000C94830014
:100060000C9483000C948300000024272A000025B0
:10007000282B000023262904040404040404040299
:100080000202020202030303030303010204081035
:100090002040800102040810200102040810200002
:1000A0000000070002010000030406000000000039
:1000B000000000009C0111241FBECFEFD4E0DEBF82
:1000C000CDBF11E0A0E0B1E0E4E4FAE002C00590A9
:1000D0000D92A231B107D9F711E0A2E1B1E001C060
:1000E0001D92A63BB107E1F710E0C6EBD0E004C0DB
:1000F0002297FE010E941C05C43BD107C9F70E944C
:1001000095010C9420050C9400000F931F9380918F
:1001100012010E94B1039093150180931401809104
:1001200000010E94B1039093170180931601809102
:1001300002010E94B10390931901809318018091EC
:1001400004010E94B10390931B0180931A018091D6
:1001500006010E94B10390931D0180931C018091C0
:1001600008010E94B10390931F0180931E0100E2D9
:1001700011E0C80141E050E060E070E020E030E0D4
:100180000E946E026091140170911501C8010E94D5
:100190006602C8014AE050E060E070E020E030E034
:1001A0000E946E02C80142E050E060E070E020E092
:1001B00030E00E946E026091160170911701C80133
:1001C0000E946602C8014AE050E060E070E020E072
:1001D00030E00E946E02C80143E050E060E070E051
:1001E00020E030E00E946E026091180170911901C8
:1001F000C8010E946602C8014AE050E060E070E079
:1002000020E030E00E946E02C80144E050E060E06F
:1002100070E020E030E00E946E0260911A0170915F
:100220001B01C8010E946602C8014AE050E060E07C
:1002300070E020E030E00E946E02C80145E050E02E
:1002400060E070E020E030E00E946E0260911C01EE
:1002500070911D01C8010E946602C8014AE050E089
:1002600060E070E020E030E00E946E02C80146E0ED
:1002700050E060E070E020E030E00E946E026091AB
:100280001E0170911F01C8010E946602C8014AE068
:1002900050E060E070E020E030E00E946E0264E632
:1002A00070E080E090E00E944D031F910F9108954F
:1002B0008091120160E00E94CF038091000160E014
:1002C0000E94CF038091020160E00E94CF038091E1
:1002D000040160E00E94CF038091060160E00E946B
:1002E000CF038091080160E00E94CF038EE061E0BF
:1002F0000E94ED038FE061E00E94ED0380E161E088
:100300000E94ED0381E161E00E94ED0382E161E082
:100310000E94ED0383E161E00E94ED0360E875E275
:1003200080E090E00E94380408950E9477030E94C4
:1003300058010E948500FDCF8FE091E0909321014C
:10034000809320010895862F0E94710408952F92B2
:100350003F924F925F926F927F928F929F92AF9255
:10036000BF92CF92DF92EF92FF920F931F93DF9392
:10037000CF93CDB7DEB7A0970FB6F894DEBF0FBE10
:10038000CDBF1C016A017B01411551056105710555
:1003900049F4DC01ED91FC910190F081E02D60E3E6
:1003A000099554C0882499245401422E552466246A
:1003B000772401E010E00C0F1D1F080D191DC70167
:1003C000B601A30192010E94C904F8016083089458
:1003D000811C911CA11CB11CC701B601A301920193
:1003E0000E94C904C901DA016C017D01C114D10464
:1003F000E104F104F1F681E0E82EF12CEC0EFD1E93
:10040000E80CF91C3E010894611C711CD501C40163
:100410000197A109B1096C01C818D90814C0F601E7
:10042000EE0DFF1D60816A3010F4605D01C0695CF3
:10043000D101ED91FC910190F081E02DC101099570
:100440000894E108F1086E147F0449F7A0960FB6EE
:10045000F894DEBF0FBECDBFCF91DF911F910F91FA
:10046000FF90EF90DF90CF90BF90AF909F908F90D4
:100470007F906F905F904F903F902F900895EF92F4
:10048000FF920F931F93CF93DF93EC017A018B01BF
:1004900077FF0FC0E881F9810190F081E02D6DE2D6
:1004A000099510950095F094E094E11CF11C011D54
:1004B000111DCE01B801A7012AE00E94A701DF911A
:1004C000CF911F910F91FF90EF900895AB01662798
:1004D00057FD6095762F0E943F020895DC0121159B
:1004E000310541F4ED91FC910190F081E02D642FF4
:1004F000099508952A30310519F40E943F020895A4
:100500000E94A70108951F920F920FB60F92112417
:100510002F933F934F935F936F937F938F939F930B
:10052000AF93BF93EF93FF938091220190912301AA
:10053000892B29F0E0912201F09123010995FF9187
:10054000EF91BF91AF919F918F917F916F915F914B
:100550004F913F912F910F900FBE0F901F901895C4
:100560001F920F920FB60F9211242F933F934F9328
:100570005F936F937F938F939F93AF93BF93EF930B
:10058000FF938091240190912501892B29F0E0911E
:100590002401F09125010995FF91EF91BF91AF9151
:1005A0009F918F917F916F915F914F913F912F918B
:1005B0000F900FBE0F901F9018951F920F920FB6BD
:1005C0000F9211242F938F939F93AF93BF9380919A
:1005D000260190912701A0912801B091290101964F
:1005E000A11DB11D8093260190932701A09328019E
:1005F000B093290180912A0190912B01A0912C01A7
:10060000B0912D018050904CAF4FBF4F80932A0185
:1006100090932B01A0932C01B0932D0127C08091C2
:100620002A0190912B01A0912C01B0912D018058AD
:100630009E43A040B04080932A0190932B01A09349
:100640002C01B0932D0180912E0190912F01A0914A
:100650003001B09131010196A11DB11D80932E0191
:1006600090932F01A0933001B093310180912A0122
:1006700090912B01A0912C01B0912D0181589E43A6
:10068000A040B04060F6BF91AF919F918F912F91A4
:100690000F900FBE0F901F901895EF92FF920F933F
:1006A0001F937B018C018FB7F89440912E015091DC
:1006B0002F0160913001709131018FBF2FB7F894F5
:1006C00080912E0190912F01A0913001B0913101C4
:1006D0002FBF841B950BA60BB70BE816F9060A076C
:1006E0001B0760F71F910F91FF90EF90089578948A
:1006F00084B5826084BD84B5816084BD85B5826027
:1007000085BD85B5816085BDEEE6F0E080818160C4
:100710008083E1E8F0E08081826080838081816075
:100720008083E0E8F0E0808181608083E1EBF0E0AD
:10073000808184608083E0EBF0E080818160808351
:10074000EAE7F0E08081846080838081826080833A
:100750008081816080838081806880831092C10065
:1007600008958F7090910A019295990F990F907C3E
:10077000982B90937C0080917A00806480937A001B
:1007800080917A0086FDFCCF20917800409179001D
:10079000942F80E030E0282B392BC9010895282FB1
:1007A00030E0C90185579F4FFC01949129583F4F74
:1007B000F9018491882381F0E82FF0E0E859FF4F98
:1007C000E491F0E0662329F4808190958923808369
:1007D00008958081892B80830895482F50E0CA01B5
:1007E00081569F4FFC012491CA0185579F4FFC0100
:1007F000949149585F4FFA0134913323C1F1222378
:1008000031F1233021F4809180008F7705C02430AE
:1008100031F4809180008F7D8093800018C021305A
:1008200019F484B58F7704C0223021F484B58F7D0C
:1008300084BD0DC0263021F48091B0008F7705C0B3
:10084000273029F48091B0008F7D8093B000E32F92
:10085000F0E0E359FF4FE491F0E0662329F4808152
:1008600090958923808308958081892B80830895C2
:10087000EF92FF920F931F937B018C0122E030E0F7
:1008800040E050E00E94EB04205C3D4B404F5F4F46
:10089000CA01B901A80197010E94EB04C901DA015C
:1008A0000197A109B109292F3A2F4B2F552747FD51
:1008B0005A950196A11DB11D2093C50081508093CA
:1008C000C400E1ECF0E080818061808380818860F9
:1008D00080838081806880831F910F91FF90EF90CB
:1008E0000895982F8091C00085FFFCCF9093C6009B
:1008F00008951F920F920FB60F9211242F933F93DA
:100900004F935F936F937F938F939F93AF93BF9317
:10091000EF93FF934091C600E0913201F0913301D3
:10092000CF01019660E870E00E94B6049C018091BE
:100930003401909135012817390739F0EA5CFE4FF0
:1009400040833093330120933201FF91EF91BF91A7
:10095000AF919F918F917F916F915F914F913F9157
:100960002F910F900FBE0F901F90189597FB092E97
:1009700007260AD077FD04D049D006D000201AF40B
:10098000709561957F4F0895F6F7909581959F4FEB
:100990000895A1E21A2EAA1BBB1BFD010DC0AA1FC0
:1009A000BB1FEE1FFF1FA217B307E407F50720F0D8
:1009B000A21BB30BE40BF50B661F771F881F991F53
:1009C0001A9469F760957095809590959B01AC019C
:1009D000BD01CF01089597FB092E05260ED057FDC6
:1009E00004D0D7DF0AD0001C38F4509540953095DC
:1009F00021953F4F4F4F5F4F0895F6F790958095A3
:100A0000709561957F4F8F4F9F4F0895AA1BBB1B19
:100A100051E107C0AA1FBB1FA617B70710F0A61BFE
:100A2000B70B881F991F5A95A9F780959095BC011F
:100A3000CD010895EE0FFF1F0590F491E02D09946C
:040A4000F894FFCF58
:100A4400010002000300040005000100000000A3EF
:020A540001009F
:00000001FF
